:020000040000fa
:080000000002040000000000f2
:020000040000fa
:10000800c8020000c8020000c8020000c8020000c0
:10001800c8020000c8020000c8020000c8020000b0
:10002800c8020000c8020000c8020000c8020000a0
:10003800c8020000c8020000c8020000c802000090
:020000040000fa
:020000040000fa
:100400006f8020000eff20000e0188000000000019
:10041000000020000000e000020032000001200087
:1004200020028800140007005b0007000000e000c5
:1004300003003a0040432000010020000200370082
:100440000000200001002000810f70000100320038
:1004500014000700000020000000e000020032004d
:10046000000002000000000028030200000000005d
:100470000040da000000fe004440a9000000200017
:100480000000e0000300320000002000a00188000e
:100490004440a800000006008a1f78008b1f7800e7
:1004a0000000060091018800800478000000eb0045
:1004b0001a003700e284440032a0b4009905ba0063
:1004c000e284440032a0b4009906ba00e2844400f9
:1004d00032a0b4000006eb00476fde00fd07b2005b
:1004e000636ce10003003a00ebff07000000eb0043
:1004f0000a003700606ce10004003a00005deb0088
:100500008b05e900fdff3e00040037006168e10053
:10051000010032000086eb000b00070019c7ba008b
:100520001905ba000e04e00003003a000a00e000da
:10053000e0ff3a0000000600fe07b2009e018800be
:100540008a047800f5ff3700395dba008b05e900b1
:100550000c003200295dba008b05e900080032006a
:100560000c00e00003003a00e284440032a0b40032
:10057000f5ff370019ddba008b05e900faff3a00f4
:100580008904e800e184440032a0b40000000600c1
:0c0590000040da000000fe000000050042
:020000040000fa
:10059c000000fa001021ef001221ef000a21ef00f9
:1005ac000621ef008500a9001061a80011e1a80048
:1005bc000080fa00000006000800fa0020079800ee
:1005cc0031079800be00900000fa20000088b900a6
:1005dc00000178002e0090006000b9000000780047
:1005ec0000014100ae00900000fa20000008b800a5
:1005fc000101410082007800008fbe00008fbe0018
:10060c000621ef000a21ef001e00be004008de00ac
:10061c0000007800700888001e00780060088800d0
:10062c000000000021048000001020000080600009
:10063c000000e000fbff32008500a9000080fa00fa
:10064c00000006000000fa000228ef000080eb001a
:10065c00004088000428ef00cdff0700c822ef00ff
:10066c00cc22ef00e024ef00050037000000000072
:10067c0003003700000000000100370000000000fc
:10068c0010168000610060000000e00013003200d2
:10069c0010168000620060000000e0000f003200c5
:1006ac00ccc2a900cce2a800cd02a800cd22a900a2
:1006bc008002200001002000bfff0700ccc2a9006f
:1006cc00cce2a900cd02a900cd22a9000005200092
:1006dc0001002000b8ff07005f00370010168000f3
:1006ec00610060000000e00013003a00101680006a
:1006fc00620060000000e0000f003200ccc2a800d5
:10070c00cce2a900cd02a800cd22a9000005200052
:10071c0001002000a8ff0700ccc2a900cce2a90070
:10072c00cd02a900cd22a900c003200001002000a9
:10073c00a1ff070048003700101680006100600020
:10074c000000e00013003200101680006200600010
:10075c000000e0000f003a00ccc2a900cce2a800d7
:10076c00cd02a900cd22a800000520000100200028
:10077c0091ff0700ccc2a900cce2a900cd02a900d0
:10078c00cd22a900c0032000010020008aff070031
:10079c003100370010168000610060000000e0009e
:1007ac00b2ff3a0010168000620060000000e0000a
:1007bc00b0ff3a00204080000000e000afff3a009c
:1007cc00ccc2a800cce2a900cd02a900cd22a80081
:1007dc00600920000100200077ff0700ccc2a900af
:1007ec00cce2a900cd02a900cd22a9000005200071
:1007fc000100200070ff07000e003700ccc2a800db
:10080c00cce2a900cd02a800cd22a9000005200051
:10081c000100200068ff0700ccc2a900cce2a900af
:10082c00cd02a900cd22a900c003200001002000a8
:10083c0061ff070010168000610060000000e000fe
:10084c00eeff3a0020408000204088000000e800c5
:0c085c00204088008aff370089ff370029
:020000040000fa
:100868000008000006000000000000000000000072
:020000040000fa
:0200000401f009
:04000c0058ff000099
:020000040000fa
:0200000401f009
:04001000fbff0000f2
:020000040000fa
:0200000401f009
:040014005fff00008a
:020000040000fa
:0200000401f009
:04001c00ffff0000e2
:020000040000fa
:0200000401f009
:040020007fff00005e
:00000001FF
